{
  "_format": "hh-sol-artifact-1",
  "contractName": "PaymentSplitterFactory",
  "sourceName": "contracts/PaymentSplitterFactory.sol",
  "abi": [
    {
      "anonymous": false,
      "inputs": [
        {
          "indexed": true,
          "internalType": "address",
          "name": "splitter",
          "type": "address"
        },
        {
          "indexed": true,
          "internalType": "address",
          "name": "owner",
          "type": "address"
        },
        {
          "indexed": false,
          "internalType": "address[]",
          "name": "payees",
          "type": "address[]"
        },
        {
          "indexed": false,
          "internalType": "uint256[]",
          "name": "shares",
          "type": "uint256[]"
        }
      ],
      "name": "SplitterDeployed",
      "type": "event"
    },
    {
      "inputs": [
        {
          "internalType": "address[]",
          "name": "payees",
          "type": "address[]"
        },
        {
          "internalType": "uint256[]",
          "name": "shares",
          "type": "uint256[]"
        }
      ],
      "name": "createSplitter",
      "outputs": [
        {
          "internalType": "address",
          "name": "splitter",
          "type": "address"
        }
      ],
      "stateMutability": "nonpayable",
      "type": "function"
    },
    {
      "inputs": [
        {
          "internalType": "address",
          "name": "splitter",
          "type": "address"
        },
        {
          "internalType": "address",
          "name": "token",
          "type": "address"
        },
        {
          "internalType": "address",
          "name": "account",
          "type": "address"
        }
      ],
      "name": "releasableERC20",
      "outputs": [
        {
          "internalType": "uint256",
          "name": "",
          "type": "uint256"
        }
      ],
      "stateMutability": "view",
      "type": "function"
    },
    {
      "inputs": [
        {
          "internalType": "address",
          "name": "splitter",
          "type": "address"
        },
        {
          "internalType": "address",
          "name": "account",
          "type": "address"
        }
      ],
      "name": "releasableNative",
      "outputs": [
        {
          "internalType": "uint256",
          "name": "",
          "type": "uint256"
        }
      ],
      "stateMutability": "view",
      "type": "function"
    },
    {
      "inputs": [
        {
          "internalType": "address",
          "name": "splitter",
          "type": "address"
        },
        {
          "internalType": "address[]",
          "name": "payees",
          "type": "address[]"
        }
      ],
      "name": "releaseAll",
      "outputs": [],
      "stateMutability": "nonpayable",
      "type": "function"
    },
    {
      "inputs": [
        {
          "internalType": "address",
          "name": "splitter",
          "type": "address"
        },
        {
          "internalType": "address",
          "name": "token",
          "type": "address"
        },
        {
          "internalType": "address[]",
          "name": "payees",
          "type": "address[]"
        }
      ],
      "name": "releaseAllERC20",
      "outputs": [],
      "stateMutability": "nonpayable",
      "type": "function"
    }
  ],
  "bytecode": "0x608060405234801561001057600080fd5b506132a6806100206000396000f3fe60806040523480156200001157600080fd5b50600436106200005e5760003560e01c8063131a6910146200006357806319eaf04d14620000835780632c13574814620000b957806351fcb42414620000d9578063f7c25fe2146200010f575b600080fd5b6200008160048036038101906200007b9190620005f9565b62000145565b005b620000a160048036038101906200009b919062000663565b62000211565b604051620000b09190620006da565b60405180910390f35b620000d76004803603810190620000d19190620006f7565b6200029d565b005b620000f76004803603810190620000f1919062000777565b62000372565b604051620001069190620006da565b60405180910390f35b6200012d600480360381019062000127919062000a30565b620003fb565b6040516200013c919062000ac6565b60405180910390f35b600083905060005b838390508110156200020a578173ffffffffffffffffffffffffffffffffffffffff1663191655878585848181106200018b576200018a62000ae3565b5b9050602002016020810190620001a2919062000b12565b6040518263ffffffff1660e01b8152600401620001c0919062000b69565b600060405180830381600087803b158015620001db57600080fd5b505af1158015620001f0573d6000803e3d6000fd5b505050508080620002019062000bb5565b9150506200014d565b5050505050565b60008373ffffffffffffffffffffffffffffffffffffffff1663c45ac05084846040518363ffffffff1660e01b81526004016200025092919062000c6d565b602060405180830381865afa1580156200026e573d6000803e3d6000fd5b505050506040513d601f19601f8201168201806040525081019062000294919062000cb1565b90509392505050565b6000849050600084905060005b8484905081101562000369578273ffffffffffffffffffffffffffffffffffffffff166348b7504483878785818110620002e957620002e862000ae3565b5b905060200201602081019062000300919062000b12565b6040518363ffffffff1660e01b81526004016200031f92919062000c6d565b600060405180830381600087803b1580156200033a57600080fd5b505af11580156200034f573d6000803e3d6000fd5b505050508080620003609062000bb5565b915050620002aa565b50505050505050565b60008273ffffffffffffffffffffffffffffffffffffffff1663a3f8eace836040518263ffffffff1660e01b8152600401620003af919062000ac6565b602060405180830381865afa158015620003cd573d6000803e3d6000fd5b505050506040513d601f19601f82011682018060405250810190620003f3919062000cb1565b905092915050565b60008151835114801562000410575060008351115b62000452576040517f08c379a0000000000000000000000000000000000000000000000000000000008152600401620004499062000d44565b60405180910390fd5b60008383604051620004649062000504565b6200047192919062000f02565b604051809103906000f0801580156200048e573d6000803e3d6000fd5b5090508091503373ffffffffffffffffffffffffffffffffffffffff168273ffffffffffffffffffffffffffffffffffffffff167fe109898a7dab4d6a56d3964c479bdea0d20678966117a9b5ce3390ff7f857b088686604051620004f592919062000f02565b60405180910390a35092915050565b6123338062000f3e83390190565b6000604051905090565b600080fd5b600080fd5b600073ffffffffffffffffffffffffffffffffffffffff82169050919050565b6000620005538262000526565b9050919050565b620005658162000546565b81146200057157600080fd5b50565b60008135905062000585816200055a565b92915050565b600080fd5b600080fd5b600080fd5b60008083601f840112620005b357620005b26200058b565b5b8235905067ffffffffffffffff811115620005d357620005d262000590565b5b602083019150836020820283011115620005f257620005f162000595565b5b9250929050565b6000806000604084860312156200061557620006146200051c565b5b6000620006258682870162000574565b935050602084013567ffffffffffffffff81111562000649576200064862000521565b5b62000657868287016200059a565b92509250509250925092565b6000806000606084860312156200067f576200067e6200051c565b5b60006200068f8682870162000574565b9350506020620006a28682870162000574565b9250506040620006b58682870162000574565b9150509250925092565b6000819050919050565b620006d481620006bf565b82525050565b6000602082019050620006f16000830184620006c9565b92915050565b600080600080606085870312156200071457620007136200051c565b5b6000620007248782880162000574565b9450506020620007378782880162000574565b935050604085013567ffffffffffffffff8111156200075b576200075a62000521565b5b62000769878288016200059a565b925092505092959194509250565b600080604083850312156200079157620007906200051c565b5b6000620007a18582860162000574565b9250506020620007b48582860162000574565b9150509250929050565b6000601f19601f8301169050919050565b7f4e487b7100000000000000000000000000000000000000000000000000000000600052604160045260246000fd5b6200080982620007be565b810181811067ffffffffffffffff821117156200082b576200082a620007cf565b5b80604052505050565b60006200084062000512565b90506200084e8282620007fe565b919050565b600067ffffffffffffffff821115620008715762000870620007cf565b5b602082029050602081019050919050565b600062000899620008938462000853565b62000834565b90508083825260208201905060208402830185811115620008bf57620008be62000595565b5b835b81811015620008ec5780620008d7888262000574565b845260208401935050602081019050620008c1565b5050509392505050565b600082601f8301126200090e576200090d6200058b565b5b81356200092084826020860162000882565b91505092915050565b600067ffffffffffffffff821115620009475762000946620007cf565b5b602082029050602081019050919050565b6200096381620006bf565b81146200096f57600080fd5b50565b600081359050620009838162000958565b92915050565b6000620009a06200099a8462000929565b62000834565b90508083825260208201905060208402830185811115620009c657620009c562000595565b5b835b81811015620009f35780620009de888262000972565b845260208401935050602081019050620009c8565b5050509392505050565b600082601f83011262000a155762000a146200058b565b5b813562000a2784826020860162000989565b91505092915050565b6000806040838503121562000a4a5762000a496200051c565b5b600083013567ffffffffffffffff81111562000a6b5762000a6a62000521565b5b62000a7985828601620008f6565b925050602083013567ffffffffffffffff81111562000a9d5762000a9c62000521565b5b62000aab85828601620009fd565b9150509250929050565b62000ac08162000546565b82525050565b600060208201905062000add600083018462000ab5565b92915050565b7f4e487b7100000000000000000000000000000000000000000000000000000000600052603260045260246000fd5b60006020828403121562000b2b5762000b2a6200051c565b5b600062000b3b8482850162000574565b91505092915050565b600062000b518262000526565b9050919050565b62000b638162000b44565b82525050565b600060208201905062000b80600083018462000b58565b92915050565b7f4e487b7100000000000000000000000000000000000000000000000000000000600052601160045260246000fd5b600062000bc282620006bf565b91507fffffffffffffffffffffffffffffffffffffffffffffffffffffffffffffffff820362000bf75762000bf662000b86565b5b600182019050919050565b6000819050919050565b600062000c2d62000c2762000c218462000526565b62000c02565b62000526565b9050919050565b600062000c418262000c0c565b9050919050565b600062000c558262000c34565b9050919050565b62000c678162000c48565b82525050565b600060408201905062000c84600083018562000c5c565b62000c93602083018462000ab5565b9392505050565b60008151905062000cab8162000958565b92915050565b60006020828403121562000cca5762000cc96200051c565b5b600062000cda8482850162000c9a565b91505092915050565b600082825260208201905092915050565b7f6261642061727261797300000000000000000000000000000000000000000000600082015250565b600062000d2c600a8362000ce3565b915062000d398262000cf4565b602082019050919050565b6000602082019050818103600083015262000d5f8162000d1d565b9050919050565b600081519050919050565b600082825260208201905092915050565b6000819050602082019050919050565b62000d9d8162000546565b82525050565b600062000db1838362000d92565b60208301905092915050565b6000602082019050919050565b600062000dd78262000d66565b62000de3818562000d71565b935062000df08362000d82565b8060005b8381101562000e2757815162000e0b888262000da3565b975062000e188362000dbd565b92505060018101905062000df4565b5085935050505092915050565b600081519050919050565b600082825260208201905092915050565b6000819050602082019050919050565b62000e6b81620006bf565b82525050565b600062000e7f838362000e60565b60208301905092915050565b6000602082019050919050565b600062000ea58262000e34565b62000eb1818562000e3f565b935062000ebe8362000e50565b8060005b8381101562000ef557815162000ed9888262000e71565b975062000ee68362000e8b565b92505060018101905062000ec2565b5085935050505092915050565b6000604082019050818103600083015262000f1e818562000dca565b9050818103602083015262000f34818462000e98565b9050939250505056fe60806040526040516200233338038062002333833981810160405281019062000029919062000667565b805182511462000070576040517f08c379a0000000000000000000000000000000000000000000000000000000008152600401620000679062000773565b60405180910390fd5b6000825111620000b7576040517f08c379a0000000000000000000000000000000000000000000000000000000008152600401620000ae90620007e5565b60405180910390fd5b60005b8251811015620001265762000110838281518110620000de57620000dd62000807565b5b6020026020010151838381518110620000fc57620000fb62000807565b5b60200260200101516200012f60201b60201c565b80806200011d9062000865565b915050620000ba565b50505062000ade565b600073ffffffffffffffffffffffffffffffffffffffff168273ffffffffffffffffffffffffffffffffffffffff1603620001a1576040517f08c379a0000000000000000000000000000000000000000000000000000000008152600401620001989062000928565b60405180910390fd5b60008111620001e7576040517f08c379a0000000000000000000000000000000000000000000000000000000008152600401620001de906200099a565b60405180910390fd5b6000600260008473ffffffffffffffffffffffffffffffffffffffff1673ffffffffffffffffffffffffffffffffffffffff16815260200190815260200160002054146200026c576040517f08c379a0000000000000000000000000000000000000000000000000000000008152600401620002639062000a32565b60405180910390fd5b6004829080600181540180825580915050600190039060005260206000200160009091909190916101000a81548173ffffffffffffffffffffffffffffffffffffffff021916908373ffffffffffffffffffffffffffffffffffffffff16021790555080600260008473ffffffffffffffffffffffffffffffffffffffff1673ffffffffffffffffffffffffffffffffffffffff168152602001908152602001600020819055508060005462000323919062000a54565b6000819055507f40c340f65e17194d14ddddb073d3c9f888e3cb52b5aae0c6c7706b4fbc905fac82826040516200035c92919062000ab1565b60405180910390a15050565b6000604051905090565b600080fd5b600080fd5b600080fd5b6000601f19601f8301169050919050565b7f4e487b7100000000000000000000000000000000000000000000000000000000600052604160045260246000fd5b620003cc8262000381565b810181811067ffffffffffffffff82111715620003ee57620003ed62000392565b5b80604052505050565b60006200040362000368565b9050620004118282620003c1565b919050565b600067ffffffffffffffff82111562000434576200043362000392565b5b602082029050602081019050919050565b600080fd5b600073ffffffffffffffffffffffffffffffffffffffff82169050919050565b600062000477826200044a565b9050919050565b62000489816200046a565b81146200049557600080fd5b50565b600081519050620004a9816200047e565b92915050565b6000620004c6620004c08462000416565b620003f7565b90508083825260208201905060208402830185811115620004ec57620004eb62000445565b5b835b8181101562000519578062000504888262000498565b845260208401935050602081019050620004ee565b5050509392505050565b600082601f8301126200053b576200053a6200037c565b5b81516200054d848260208601620004af565b91505092915050565b600067ffffffffffffffff82111562000574576200057362000392565b5b602082029050602081019050919050565b6000819050919050565b6200059a8162000585565b8114620005a657600080fd5b50565b600081519050620005ba816200058f565b92915050565b6000620005d7620005d18462000556565b620003f7565b90508083825260208201905060208402830185811115620005fd57620005fc62000445565b5b835b818110156200062a5780620006158882620005a9565b845260208401935050602081019050620005ff565b5050509392505050565b600082601f8301126200064c576200064b6200037c565b5b81516200065e848260208601620005c0565b91505092915050565b6000806040838503121562000681576200068062000372565b5b600083015167ffffffffffffffff811115620006a257620006a162000377565b5b620006b08582860162000523565b925050602083015167ffffffffffffffff811115620006d457620006d362000377565b5b620006e28582860162000634565b9150509250929050565b600082825260208201905092915050565b7f5061796d656e7453706c69747465723a2070617965657320616e64207368617260008201527f6573206c656e677468206d69736d617463680000000000000000000000000000602082015250565b60006200075b603283620006ec565b91506200076882620006fd565b604082019050919050565b600060208201905081810360008301526200078e816200074c565b9050919050565b7f5061796d656e7453706c69747465723a206e6f20706179656573000000000000600082015250565b6000620007cd601a83620006ec565b9150620007da8262000795565b602082019050919050565b600060208201905081810360008301526200080081620007be565b9050919050565b7f4e487b7100000000000000000000000000000000000000000000000000000000600052603260045260246000fd5b7f4e487b7100000000000000000000000000000000000000000000000000000000600052601160045260246000fd5b6000620008728262000585565b91507fffffffffffffffffffffffffffffffffffffffffffffffffffffffffffffffff8203620008a757620008a662000836565b5b600182019050919050565b7f5061796d656e7453706c69747465723a206163636f756e74206973207468652060008201527f7a65726f20616464726573730000000000000000000000000000000000000000602082015250565b600062000910602c83620006ec565b91506200091d82620008b2565b604082019050919050565b60006020820190508181036000830152620009438162000901565b9050919050565b7f5061796d656e7453706c69747465723a20736861726573206172652030000000600082015250565b600062000982601d83620006ec565b91506200098f826200094a565b602082019050919050565b60006020820190508181036000830152620009b58162000973565b9050919050565b7f5061796d656e7453706c69747465723a206163636f756e7420616c726561647960008201527f2068617320736861726573000000000000000000000000000000000000000000602082015250565b600062000a1a602b83620006ec565b915062000a2782620009bc565b604082019050919050565b6000602082019050818103600083015262000a4d8162000a0b565b9050919050565b600062000a618262000585565b915062000a6e8362000585565b925082820190508082111562000a895762000a8862000836565b5b92915050565b62000a9a816200046a565b82525050565b62000aab8162000585565b82525050565b600060408201905062000ac8600083018562000a8f565b62000ad7602083018462000aa0565b9392505050565b6118458062000aee6000396000f3fe6080604052600436106100a05760003560e01c80639852595c116100645780639852595c146101e3578063a3f8eace14610220578063c45ac0501461025d578063ce7c2ac21461029a578063d79779b2146102d7578063e33b7de314610314576100e7565b806319165587146100ec5780633a98ef3914610115578063406072a91461014057806348b750441461017d5780638b83209b146101a6576100e7565b366100e7577f6ef95f06320e7a25a04a175ca677b7052bdd97131872c2192525a629f51be7706100ce61033f565b346040516100dd929190610e4f565b60405180910390a1005b600080fd5b3480156100f857600080fd5b50610113600480360381019061010e9190610ebb565b610347565b005b34801561012157600080fd5b5061012a6104c6565b6040516101379190610ee8565b60405180910390f35b34801561014c57600080fd5b5061016760048036038101906101629190610f6d565b6104cf565b6040516101749190610ee8565b60405180910390f35b34801561018957600080fd5b506101a4600480360381019061019f9190610f6d565b610556565b005b3480156101b257600080fd5b506101cd60048036038101906101c89190610fd9565b610769565b6040516101da9190611006565b60405180910390f35b3480156101ef57600080fd5b5061020a60048036038101906102059190611021565b6107b1565b6040516102179190610ee8565b60405180910390f35b34801561022c57600080fd5b5061024760048036038101906102429190611021565b6107fa565b6040516102549190610ee8565b60405180910390f35b34801561026957600080fd5b50610284600480360381019061027f9190610f6d565b61082d565b6040516102919190610ee8565b60405180910390f35b3480156102a657600080fd5b506102c160048036038101906102bc9190611021565b6108dc565b6040516102ce9190610ee8565b60405180910390f35b3480156102e357600080fd5b506102fe60048036038101906102f9919061104e565b610925565b60405161030b9190610ee8565b60405180910390f35b34801561032057600080fd5b5061032961096e565b6040516103369190610ee8565b60405180910390f35b600033905090565b6000600260008373ffffffffffffffffffffffffffffffffffffffff1673ffffffffffffffffffffffffffffffffffffffff16815260200190815260200160002054116103c9576040517f08c379a00000000000000000000000000000000000000000000000000000000081526004016103c0906110fe565b60405180910390fd5b60006103d4826107fa565b905060008103610419576040517f08c379a000000000000000000000000000000000000000000000000000000000815260040161041090611190565b60405180910390fd5b806001600082825461042b91906111df565b9250508190555080600360008473ffffffffffffffffffffffffffffffffffffffff1673ffffffffffffffffffffffffffffffffffffffff168152602001908152602001600020600082825401925050819055506104898282610978565b7fdf20fd1e76bc69d672e4814fafb2c449bba3a5369d8359adf9e05e6fde87b05682826040516104ba929190611272565b60405180910390a15050565b60008054905090565b6000600660008473ffffffffffffffffffffffffffffffffffffffff1673ffffffffffffffffffffffffffffffffffffffff16815260200190815260200160002060008373ffffffffffffffffffffffffffffffffffffffff1673ffffffffffffffffffffffffffffffffffffffff16815260200190815260200160002054905092915050565b6000600260008373ffffffffffffffffffffffffffffffffffffffff1673ffffffffffffffffffffffffffffffffffffffff16815260200190815260200160002054116105d8576040517f08c379a00000000000000000000000000000000000000000000000000000000081526004016105cf906110fe565b60405180910390fd5b60006105e4838361082d565b905060008103610629576040517f08c379a000000000000000000000000000000000000000000000000000000000815260040161062090611190565b60405180910390fd5b80600560008573ffffffffffffffffffffffffffffffffffffffff1673ffffffffffffffffffffffffffffffffffffffff168152602001908152602001600020600082825461067891906111df565b9250508190555080600660008573ffffffffffffffffffffffffffffffffffffffff1673ffffffffffffffffffffffffffffffffffffffff16815260200190815260200160002060008473ffffffffffffffffffffffffffffffffffffffff1673ffffffffffffffffffffffffffffffffffffffff16815260200190815260200160002060008282540192505081905550610714838383610a6c565b8273ffffffffffffffffffffffffffffffffffffffff167f3be5b7a71e84ed12875d241991c70855ac5817d847039e17a9d895c1ceb0f18a838360405161075c929190610e4f565b60405180910390a2505050565b60006004828154811061077f5761077e61129b565b5b9060005260206000200160009054906101000a900473ffffffffffffffffffffffffffffffffffffffff169050919050565b6000600360008373ffffffffffffffffffffffffffffffffffffffff1673ffffffffffffffffffffffffffffffffffffffff168152602001908152602001600020549050919050565b60008061080561096e565b4761081091906111df565b90506108258382610820866107b1565b610af2565b915050919050565b60008061083984610925565b8473ffffffffffffffffffffffffffffffffffffffff166370a08231306040518263ffffffff1660e01b81526004016108729190611006565b602060405180830381865afa15801561088f573d6000803e3d6000fd5b505050506040513d601f19601f820116820180604052508101906108b391906112df565b6108bd91906111df565b90506108d383826108ce87876104cf565b610af2565b91505092915050565b6000600260008373ffffffffffffffffffffffffffffffffffffffff1673ffffffffffffffffffffffffffffffffffffffff168152602001908152602001600020549050919050565b6000600560008373ffffffffffffffffffffffffffffffffffffffff1673ffffffffffffffffffffffffffffffffffffffff168152602001908152602001600020549050919050565b6000600154905090565b804710156109bb576040517f08c379a00000000000000000000000000000000000000000000000000000000081526004016109b290611358565b60405180910390fd5b60008273ffffffffffffffffffffffffffffffffffffffff16826040516109e1906113a9565b60006040518083038185875af1925050503d8060008114610a1e576040519150601f19603f3d011682016040523d82523d6000602084013e610a23565b606091505b5050905080610a67576040517f08c379a0000000000000000000000000000000000000000000000000000000008152600401610a5e90611430565b60405180910390fd5b505050565b610aed8363a9059cbb60e01b8484604051602401610a8b929190610e4f565b604051602081830303815290604052907bffffffffffffffffffffffffffffffffffffffffffffffffffffffff19166020820180517bffffffffffffffffffffffffffffffffffffffffffffffffffffffff8381831617835250505050610b60565b505050565b600081600054600260008773ffffffffffffffffffffffffffffffffffffffff1673ffffffffffffffffffffffffffffffffffffffff1681526020019081526020016000205485610b439190611450565b610b4d91906114c1565b610b5791906114f2565b90509392505050565b6000610bc2826040518060400160405280602081526020017f5361666545524332303a206c6f772d6c6576656c2063616c6c206661696c65648152508573ffffffffffffffffffffffffffffffffffffffff16610c289092919063ffffffff16565b9050600081511480610be4575080806020019051810190610be3919061155e565b5b610c23576040517f08c379a0000000000000000000000000000000000000000000000000000000008152600401610c1a906115fd565b60405180910390fd5b505050565b6060610c378484600085610c40565b90509392505050565b606082471015610c85576040517f08c379a0000000000000000000000000000000000000000000000000000000008152600401610c7c9061168f565b60405180910390fd5b6000808673ffffffffffffffffffffffffffffffffffffffff168587604051610cae9190611715565b60006040518083038185875af1925050503d8060008114610ceb576040519150601f19603f3d011682016040523d82523d6000602084013e610cf0565b606091505b5091509150610d0187838387610d0d565b92505050949350505050565b60608315610d6f576000835103610d6757610d2785610d82565b610d66576040517f08c379a0000000000000000000000000000000000000000000000000000000008152600401610d5d90611778565b60405180910390fd5b5b829050610d7a565b610d798383610da5565b5b949350505050565b6000808273ffffffffffffffffffffffffffffffffffffffff163b119050919050565b600082511115610db85781518083602001fd5b806040517f08c379a0000000000000000000000000000000000000000000000000000000008152600401610dec91906117ed565b60405180910390fd5b600073ffffffffffffffffffffffffffffffffffffffff82169050919050565b6000610e2082610df5565b9050919050565b610e3081610e15565b82525050565b6000819050919050565b610e4981610e36565b82525050565b6000604082019050610e646000830185610e27565b610e716020830184610e40565b9392505050565b600080fd5b6000610e8882610df5565b9050919050565b610e9881610e7d565b8114610ea357600080fd5b50565b600081359050610eb581610e8f565b92915050565b600060208284031215610ed157610ed0610e78565b5b6000610edf84828501610ea6565b91505092915050565b6000602082019050610efd6000830184610e40565b92915050565b6000610f0e82610e15565b9050919050565b610f1e81610f03565b8114610f2957600080fd5b50565b600081359050610f3b81610f15565b92915050565b610f4a81610e15565b8114610f5557600080fd5b50565b600081359050610f6781610f41565b92915050565b60008060408385031215610f8457610f83610e78565b5b6000610f9285828601610f2c565b9250506020610fa385828601610f58565b9150509250929050565b610fb681610e36565b8114610fc157600080fd5b50565b600081359050610fd381610fad565b92915050565b600060208284031215610fef57610fee610e78565b5b6000610ffd84828501610fc4565b91505092915050565b600060208201905061101b6000830184610e27565b92915050565b60006020828403121561103757611036610e78565b5b600061104584828501610f58565b91505092915050565b60006020828403121561106457611063610e78565b5b600061107284828501610f2c565b91505092915050565b600082825260208201905092915050565b7f5061796d656e7453706c69747465723a206163636f756e7420686173206e6f2060008201527f7368617265730000000000000000000000000000000000000000000000000000602082015250565b60006110e860268361107b565b91506110f38261108c565b604082019050919050565b60006020820190508181036000830152611117816110db565b9050919050565b7f5061796d656e7453706c69747465723a206163636f756e74206973206e6f742060008201527f647565207061796d656e74000000000000000000000000000000000000000000602082015250565b600061117a602b8361107b565b91506111858261111e565b604082019050919050565b600060208201905081810360008301526111a98161116d565b9050919050565b7f4e487b7100000000000000000000000000000000000000000000000000000000600052601160045260246000fd5b60006111ea82610e36565b91506111f583610e36565b925082820190508082111561120d5761120c6111b0565b5b92915050565b6000819050919050565b600061123861123361122e84610df5565b611213565b610df5565b9050919050565b600061124a8261121d565b9050919050565b600061125c8261123f565b9050919050565b61126c81611251565b82525050565b60006040820190506112876000830185611263565b6112946020830184610e40565b9392505050565b7f4e487b7100000000000000000000000000000000000000000000000000000000600052603260045260246000fd5b6000815190506112d981610fad565b92915050565b6000602082840312156112f5576112f4610e78565b5b6000611303848285016112ca565b91505092915050565b7f416464726573733a20696e73756666696369656e742062616c616e6365000000600082015250565b6000611342601d8361107b565b915061134d8261130c565b602082019050919050565b6000602082019050818103600083015261137181611335565b9050919050565b600081905092915050565b50565b6000611393600083611378565b915061139e82611383565b600082019050919050565b60006113b482611386565b9150819050919050565b7f416464726573733a20756e61626c6520746f2073656e642076616c75652c207260008201527f6563697069656e74206d61792068617665207265766572746564000000000000602082015250565b600061141a603a8361107b565b9150611425826113be565b604082019050919050565b600060208201905081810360008301526114498161140d565b9050919050565b600061145b82610e36565b915061146683610e36565b925082820261147481610e36565b9150828204841483151761148b5761148a6111b0565b5b5092915050565b7f4e487b7100000000000000000000000000000000000000000000000000000000600052601260045260246000fd5b60006114cc82610e36565b91506114d783610e36565b9250826114e7576114e6611492565b5b828204905092915050565b60006114fd82610e36565b915061150883610e36565b92508282039050818111156115205761151f6111b0565b5b92915050565b60008115159050919050565b61153b81611526565b811461154657600080fd5b50565b60008151905061155881611532565b92915050565b60006020828403121561157457611573610e78565b5b600061158284828501611549565b91505092915050565b7f5361666545524332303a204552433230206f7065726174696f6e20646964206e60008201527f6f74207375636365656400000000000000000000000000000000000000000000602082015250565b60006115e7602a8361107b565b91506115f28261158b565b604082019050919050565b60006020820190508181036000830152611616816115da565b9050919050565b7f416464726573733a20696e73756666696369656e742062616c616e636520666f60008201527f722063616c6c0000000000000000000000000000000000000000000000000000602082015250565b600061167960268361107b565b91506116848261161d565b604082019050919050565b600060208201905081810360008301526116a88161166c565b9050919050565b600081519050919050565b60005b838110156116d85780820151818401526020810190506116bd565b60008484015250505050565b60006116ef826116af565b6116f98185611378565b93506117098185602086016116ba565b80840191505092915050565b600061172182846116e4565b915081905092915050565b7f416464726573733a2063616c6c20746f206e6f6e2d636f6e7472616374000000600082015250565b6000611762601d8361107b565b915061176d8261172c565b602082019050919050565b6000602082019050818103600083015261179181611755565b9050919050565b600081519050919050565b6000601f19601f8301169050919050565b60006117bf82611798565b6117c9818561107b565b93506117d98185602086016116ba565b6117e2816117a3565b840191505092915050565b6000602082019050818103600083015261180781846117b4565b90509291505056fea2646970667358221220e16283b399343e4006026c0b6924dcca56b58e4402b1ed8af56cf29bdb3e915f64736f6c63430008140033a26469706673582212209a0a89270f5742c3895c4d3a3848a919d0abeed0a91dc2346fe309d8f8ce49d364736f6c63430008140033",
  "linkReferences": {},
  "deployedLinkReferences": {}
}